{
  "_format": "hh-sol-artifact-1",
  "contractName": "Domains4",
  "sourceName": "contracts/Domains4.sol",
  "abi": [
    {
      "inputs": [
        {
          "internalType": "string",
          "name": "_tld",
          "type": "string"
        }
      ],
      "stateMutability": "payable",
      "type": "constructor"
    },
    {
      "inputs": [],
      "name": "AlreadyRegistered",
      "type": "error"
    },
    {
      "inputs": [
        {
          "internalType": "string",
          "name": "name",
          "type": "string"
        }
      ],
      "name": "InvalidName",
      "type": "error"
    },
    {
      "inputs": [],
      "name": "Unauthorized",
      "type": "error"
    },
    {
      "anonymous": false,
      "inputs": [
        {
          "indexed": true,
          "internalType": "address",
          "name": "owner",
          "type": "address"
        },
        {
          "indexed": true,
          "internalType": "address",
          "name": "approved",
          "type": "address"
        },
        {
          "indexed": true,
          "internalType": "uint256",
          "name": "tokenId",
          "type": "uint256"
        }
      ],
      "name": "Approval",
      "type": "event"
    },
    {
      "anonymous": false,
      "inputs": [
        {
          "indexed": true,
          "internalType": "address",
          "name": "owner",
          "type": "address"
        },
        {
          "indexed": true,
          "internalType": "address",
          "name": "operator",
          "type": "address"
        },
        {
          "indexed": false,
          "internalType": "bool",
          "name": "approved",
          "type": "bool"
        }
      ],
      "name": "ApprovalForAll",
      "type": "event"
    },
    {
      "anonymous": false,
      "inputs": [
        {
          "indexed": true,
          "internalType": "address",
          "name": "from",
          "type": "address"
        },
        {
          "indexed": true,
          "internalType": "address",
          "name": "to",
          "type": "address"
        },
        {
          "indexed": true,
          "internalType": "uint256",
          "name": "tokenId",
          "type": "uint256"
        }
      ],
      "name": "Transfer",
      "type": "event"
    },
    {
      "inputs": [
        {
          "internalType": "address",
          "name": "to",
          "type": "address"
        },
        {
          "internalType": "uint256",
          "name": "tokenId",
          "type": "uint256"
        }
      ],
      "name": "approve",
      "outputs": [],
      "stateMutability": "nonpayable",
      "type": "function"
    },
    {
      "inputs": [
        {
          "internalType": "address",
          "name": "owner",
          "type": "address"
        }
      ],
      "name": "balanceOf",
      "outputs": [
        {
          "internalType": "uint256",
          "name": "",
          "type": "uint256"
        }
      ],
      "stateMutability": "view",
      "type": "function"
    },
    {
      "inputs": [
        {
          "internalType": "string",
          "name": "",
          "type": "string"
        }
      ],
      "name": "domains",
      "outputs": [
        {
          "internalType": "address",
          "name": "",
          "type": "address"
        }
      ],
      "stateMutability": "view",
      "type": "function"
    },
    {
      "inputs": [
        {
          "internalType": "string",
          "name": "name",
          "type": "string"
        }
      ],
      "name": "getAddress",
      "outputs": [
        {
          "internalType": "address",
          "name": "",
          "type": "address"
        }
      ],
      "stateMutability": "view",
      "type": "function"
    },
    {
      "inputs": [],
      "name": "getAllNames",
      "outputs": [
        {
          "internalType": "string[]",
          "name": "",
          "type": "string[]"
        }
      ],
      "stateMutability": "view",
      "type": "function"
    },
    {
      "inputs": [
        {
          "internalType": "uint256",
          "name": "tokenId",
          "type": "uint256"
        }
      ],
      "name": "getApproved",
      "outputs": [
        {
          "internalType": "address",
          "name": "",
          "type": "address"
        }
      ],
      "stateMutability": "view",
      "type": "function"
    },
    {
      "inputs": [
        {
          "internalType": "string",
          "name": "name",
          "type": "string"
        }
      ],
      "name": "getPrice",
      "outputs": [
        {
          "internalType": "uint256",
          "name": "",
          "type": "uint256"
        }
      ],
      "stateMutability": "pure",
      "type": "function"
    },
    {
      "inputs": [
        {
          "internalType": "string",
          "name": "name",
          "type": "string"
        }
      ],
      "name": "getRecord",
      "outputs": [
        {
          "internalType": "string",
          "name": "",
          "type": "string"
        }
      ],
      "stateMutability": "view",
      "type": "function"
    },
    {
      "inputs": [
        {
          "internalType": "address",
          "name": "owner",
          "type": "address"
        },
        {
          "internalType": "address",
          "name": "operator",
          "type": "address"
        }
      ],
      "name": "isApprovedForAll",
      "outputs": [
        {
          "internalType": "bool",
          "name": "",
          "type": "bool"
        }
      ],
      "stateMutability": "view",
      "type": "function"
    },
    {
      "inputs": [],
      "name": "isOwner",
      "outputs": [
        {
          "internalType": "bool",
          "name": "",
          "type": "bool"
        }
      ],
      "stateMutability": "view",
      "type": "function"
    },
    {
      "inputs": [],
      "name": "my_tld",
      "outputs": [
        {
          "internalType": "string",
          "name": "",
          "type": "string"
        }
      ],
      "stateMutability": "view",
      "type": "function"
    },
    {
      "inputs": [],
      "name": "name",
      "outputs": [
        {
          "internalType": "string",
          "name": "",
          "type": "string"
        }
      ],
      "stateMutability": "view",
      "type": "function"
    },
    {
      "inputs": [
        {
          "internalType": "uint256",
          "name": "",
          "type": "uint256"
        }
      ],
      "name": "names",
      "outputs": [
        {
          "internalType": "string",
          "name": "",
          "type": "string"
        }
      ],
      "stateMutability": "view",
      "type": "function"
    },
    {
      "inputs": [],
      "name": "owner",
      "outputs": [
        {
          "internalType": "address payable",
          "name": "",
          "type": "address"
        }
      ],
      "stateMutability": "view",
      "type": "function"
    },
    {
      "inputs": [
        {
          "internalType": "uint256",
          "name": "tokenId",
          "type": "uint256"
        }
      ],
      "name": "ownerOf",
      "outputs": [
        {
          "internalType": "address",
          "name": "",
          "type": "address"
        }
      ],
      "stateMutability": "view",
      "type": "function"
    },
    {
      "inputs": [
        {
          "internalType": "string",
          "name": "",
          "type": "string"
        }
      ],
      "name": "records",
      "outputs": [
        {
          "internalType": "string",
          "name": "",
          "type": "string"
        }
      ],
      "stateMutability": "view",
      "type": "function"
    },
    {
      "inputs": [
        {
          "internalType": "string",
          "name": "name",
          "type": "string"
        }
      ],
      "name": "register",
      "outputs": [],
      "stateMutability": "payable",
      "type": "function"
    },
    {
      "inputs": [
        {
          "internalType": "address",
          "name": "from",
          "type": "address"
        },
        {
          "internalType": "address",
          "name": "to",
          "type": "address"
        },
        {
          "internalType": "uint256",
          "name": "tokenId",
          "type": "uint256"
        }
      ],
      "name": "safeTransferFrom",
      "outputs": [],
      "stateMutability": "nonpayable",
      "type": "function"
    },
    {
      "inputs": [
        {
          "internalType": "address",
          "name": "from",
          "type": "address"
        },
        {
          "internalType": "address",
          "name": "to",
          "type": "address"
        },
        {
          "internalType": "uint256",
          "name": "tokenId",
          "type": "uint256"
        },
        {
          "internalType": "bytes",
          "name": "data",
          "type": "bytes"
        }
      ],
      "name": "safeTransferFrom",
      "outputs": [],
      "stateMutability": "nonpayable",
      "type": "function"
    },
    {
      "inputs": [
        {
          "internalType": "address",
          "name": "operator",
          "type": "address"
        },
        {
          "internalType": "bool",
          "name": "approved",
          "type": "bool"
        }
      ],
      "name": "setApprovalForAll",
      "outputs": [],
      "stateMutability": "nonpayable",
      "type": "function"
    },
    {
      "inputs": [
        {
          "internalType": "string",
          "name": "name",
          "type": "string"
        },
        {
          "internalType": "string",
          "name": "recordIn",
          "type": "string"
        }
      ],
      "name": "setRecord",
      "outputs": [],
      "stateMutability": "nonpayable",
      "type": "function"
    },
    {
      "inputs": [
        {
          "internalType": "bytes4",
          "name": "interfaceId",
          "type": "bytes4"
        }
      ],
      "name": "supportsInterface",
      "outputs": [
        {
          "internalType": "bool",
          "name": "",
          "type": "bool"
        }
      ],
      "stateMutability": "view",
      "type": "function"
    },
    {
      "inputs": [],
      "name": "symbol",
      "outputs": [
        {
          "internalType": "string",
          "name": "",
          "type": "string"
        }
      ],
      "stateMutability": "view",
      "type": "function"
    },
    {
      "inputs": [
        {
          "internalType": "uint256",
          "name": "tokenId",
          "type": "uint256"
        }
      ],
      "name": "tokenURI",
      "outputs": [
        {
          "internalType": "string",
          "name": "",
          "type": "string"
        }
      ],
      "stateMutability": "view",
      "type": "function"
    },
    {
      "inputs": [
        {
          "internalType": "address",
          "name": "from",
          "type": "address"
        },
        {
          "internalType": "address",
          "name": "to",
          "type": "address"
        },
        {
          "internalType": "uint256",
          "name": "tokenId",
          "type": "uint256"
        }
      ],
      "name": "transferFrom",
      "outputs": [],
      "stateMutability": "nonpayable",
      "type": "function"
    },
    {
      "inputs": [
        {
          "internalType": "string",
          "name": "name",
          "type": "string"
        }
      ],
      "name": "valid",
      "outputs": [
        {
          "internalType": "bool",
          "name": "",
          "type": "bool"
        }
      ],
      "stateMutability": "pure",
      "type": "function"
    },
    {
      "inputs": [],
      "name": "withdraw",
      "outputs": [],
      "stateMutability": "nonpayable",
      "type": "function"
    }
  ],
  "bytecode": "0x60806040526040518061032001604052806102ea8152602001620059826102ea9139600a908051906020019062000038929190620002a8565b506040518060400160405280600d81526020017f3c2f746578743e3c2f7376673e00000000000000000000000000000000000000815250600b908051906020019062000086929190620002a8565b5060405162005c6c38038062005c6c8339818101604052810190620000ac9190620004f5565b6040518060400160405280601481526020017f4d756e6e61204e616d696e6720536572766963650000000000000000000000008152506040518060400160405280600381526020017f4d4e530000000000000000000000000000000000000000000000000000000000815250816000908051906020019062000130929190620002a8565b50806001908051906020019062000149929190620002a8565b50505033600760006101000a81548173ffffffffffffffffffffffffffffffffffffffff021916908373ffffffffffffffffffffffffffffffffffffffff1602179055508060099080519060200190620001a5929190620002a8565b50620001d56040518060800160405280604281526020016200594060429139620001dc60201b62001dd51760201c565b506200062c565b6200027c81604051602401620001f39190620005a3565b6040516020818303038152906040527f41304fac000000000000000000000000000000000000000000000000000000007bffffffffffffffffffffffffffffffffffffffffffffffffffffffff19166020820180517bffffffffffffffffffffffffffffffffffffffffffffffffffffffff83818316178352505050506200027f60201b60201c565b50565b60008151905060006a636f6e736f6c652e6c6f679050602083016000808483855afa5050505050565b828054620002b690620005f6565b90600052602060002090601f016020900481019282620002da576000855562000326565b82601f10620002f557805160ff191683800117855562000326565b8280016001018555821562000326579182015b828111156200032557825182559160200191906001019062000308565b5b50905062000335919062000339565b5090565b5b80821115620003545760008160009055506001016200033a565b5090565b6000604051905090565b600080fd5b600080fd5b600080fd5b600080fd5b6000601f19601f8301169050919050565b7f4e487b7100000000000000000000000000000000000000000000000000000000600052604160045260246000fd5b620003c18262000376565b810181811067ffffffffffffffff82111715620003e357620003e262000387565b5b80604052505050565b6000620003f862000358565b9050620004068282620003b6565b919050565b600067ffffffffffffffff82111562000429576200042862000387565b5b620004348262000376565b9050602081019050919050565b60005b838110156200046157808201518184015260208101905062000444565b8381111562000471576000848401525b50505050565b60006200048e62000488846200040b565b620003ec565b905082815260208101848484011115620004ad57620004ac62000371565b5b620004ba84828562000441565b509392505050565b600082601f830112620004da57620004d96200036c565b5b8151620004ec84826020860162000477565b91505092915050565b6000602082840312156200050e576200050d62000362565b5b600082015167ffffffffffffffff8111156200052f576200052e62000367565b5b6200053d84828501620004c2565b91505092915050565b600081519050919050565b600082825260208201905092915050565b60006200056f8262000546565b6200057b818562000551565b93506200058d81856020860162000441565b620005988162000376565b840191505092915050565b60006020820190508181036000830152620005bf818462000562565b905092915050565b7f4e487b7100000000000000000000000000000000000000000000000000000000600052602260045260246000fd5b600060028204905060018216806200060f57607f821691505b60208210811415620006265762000625620005c7565b5b50919050565b615304806200063c6000396000f3fe60806040526004361061019c5760003560e01c80636352211e116100ec578063b88d4fde1161008a578063c87b56dd11610064578063c87b56dd14610624578063e985e9c514610661578063f2c298be1461069e578063fb825e5f146106ba5761019c565b8063b88d4fde14610595578063bf40fac1146105be578063c1880a98146105fb5761019c565b80638f32d59b116100c65780638f32d59b146104d957806395d89b41146105045780639791c0971461052f578063a22cb4651461056c5761019c565b80636352211e1461043457806370a08231146104715780638da5cb5b146104ae5761019c565b806323b872dd1161015957806342842e0e1161013357806342842e0e146103545780634622ab031461037d578063524f3889146103ba578063541e771d146103f75761019c565b806323b872dd146102d757806326449235146103005780633ccfd60b1461033d5761019c565b806301ffc9a7146101a157806306fdde03146101de578063081812fc14610209578063095ea7b3146102465780630ae2ad631461026f57806311dd88451461029a575b600080fd5b3480156101ad57600080fd5b506101c860048036038101906101c3919061379a565b6106e5565b6040516101d591906137e2565b60405180910390f35b3480156101ea57600080fd5b506101f36107c7565b6040516102009190613896565b60405180910390f35b34801561021557600080fd5b50610230600480360381019061022b91906138ee565b610859565b60405161023d919061395c565b60405180910390f35b34801561025257600080fd5b5061026d600480360381019061026891906139a3565b61089f565b005b34801561027b57600080fd5b506102846109b7565b6040516102919190613896565b60405180910390f35b3480156102a657600080fd5b506102c160048036038101906102bc9190613a48565b610a45565b6040516102ce9190613896565b60405180910390f35b3480156102e357600080fd5b506102fe60048036038101906102f99190613a95565b610af8565b005b34801561030c57600080fd5b5061032760048036038101906103229190613c18565b610b58565b604051610334919061395c565b60405180910390f35b34801561034957600080fd5b50610352610ba1565b005b34801561036057600080fd5b5061037b60048036038101906103769190613a95565b610c67565b005b34801561038957600080fd5b506103a4600480360381019061039f91906138ee565b610c87565b6040516103b19190613896565b60405180910390f35b3480156103c657600080fd5b506103e160048036038101906103dc9190613a48565b610d27565b6040516103ee9190613c70565b60405180910390f35b34801561040357600080fd5b5061041e60048036038101906104199190613c18565b610dc7565b60405161042b9190613896565b60405180910390f35b34801561044057600080fd5b5061045b600480360381019061045691906138ee565b610e7d565b604051610468919061395c565b60405180910390f35b34801561047d57600080fd5b5061049860048036038101906104939190613c8b565b610f04565b6040516104a59190613c70565b60405180910390f35b3480156104ba57600080fd5b506104c3610fbc565b6040516104d09190613cd9565b60405180910390f35b3480156104e557600080fd5b506104ee610fe2565b6040516104fb91906137e2565b60405180910390f35b34801561051057600080fd5b5061051961103a565b6040516105269190613896565b60405180910390f35b34801561053b57600080fd5b5061055660048036038101906105519190613a48565b6110cc565b60405161056391906137e2565b60405180910390f35b34801561057857600080fd5b50610593600480360381019061058e9190613d20565b611180565b005b3480156105a157600080fd5b506105bc60048036038101906105b79190613e01565b611196565b005b3480156105ca57600080fd5b506105e560048036038101906105e09190613a48565b6111f8565b6040516105f2919061395c565b60405180910390f35b34801561060757600080fd5b50610622600480360381019061061d9190613e84565b6112e7565b005b34801561063057600080fd5b5061064b600480360381019061064691906138ee565b6114ab565b6040516106589190613896565b60405180910390f35b34801561066d57600080fd5b5061068860048036038101906106839190613f05565b6115be565b60405161069591906137e2565b60405180910390f35b6106b860048036038101906106b39190613a48565b611652565b005b3480156106c657600080fd5b506106cf611bf7565b6040516106dc9190614051565b60405180910390f35b60007f80ac58cd000000000000000000000000000000000000000000000000000000007bffffffffffffffffffffffffffffffffffffffffffffffffffffffff1916827bffffffffffffffffffffffffffffffffffffffffffffffffffffffff191614806107b057507f5b5e139f000000000000000000000000000000000000000000000000000000007bffffffffffffffffffffffffffffffffffffffffffffffffffffffff1916827bffffffffffffffffffffffffffffffffffffffffffffffffffffffff1916145b806107c057506107bf82611e6e565b5b9050919050565b6060600080546107d6906140a2565b80601f0160208091040260200160405190810160405280929190818152602001828054610802906140a2565b801561084f5780601f106108245761010080835404028352916020019161084f565b820191906000526020600020905b81548152906001019060200180831161083257829003601f168201915b5050505050905090565b600061086482611ed8565b6004600083815260200190815260200160002060009054906101000a900473ffffffffffffffffffffffffffffffffffffffff169050919050565b60006108aa82610e7d565b90508073ffffffffffffffffffffffffffffffffffffffff168373ffffffffffffffffffffffffffffffffffffffff16141561091b576040517f08c379a000000000000000000000000000000000000000000000000000000000815260040161091290614146565b60405180910390fd5b8073ffffffffffffffffffffffffffffffffffffffff1661093a611f23565b73ffffffffffffffffffffffffffffffffffffffff161480610969575061096881610963611f23565b6115be565b5b6109a8576040517f08c379a000000000000000000000000000000000000000000000000000000000815260040161099f906141d8565b60405180910390fd5b6109b28383611f2b565b505050565b600980546109c4906140a2565b80601f01602080910402602001604051908101604052809291908181526020018280546109f0906140a2565b8015610a3d5780601f10610a1257610100808354040283529160200191610a3d565b820191906000526020600020905b815481529060010190602001808311610a2057829003601f168201915b505050505081565b6060600d8383604051610a59929190614228565b90815260200160405180910390208054610a72906140a2565b80601f0160208091040260200160405190810160405280929190818152602001828054610a9e906140a2565b8015610aeb5780601f10610ac057610100808354040283529160200191610aeb565b820191906000526020600020905b815481529060010190602001808311610ace57829003601f168201915b5050505050905092915050565b610b09610b03611f23565b82611fe4565b610b48576040517f08c379a0000000000000000000000000000000000000000000000000000000008152600401610b3f906142b3565b60405180910390fd5b610b53838383612079565b505050565b600c818051602081018201805184825260208301602085012081835280955050505050506000915054906101000a900473ffffffffffffffffffffffffffffffffffffffff1681565b610ba9610fe2565b610bb257600080fd5b600047905060003373ffffffffffffffffffffffffffffffffffffffff1682604051610bdd90614304565b60006040518083038185875af1925050503d8060008114610c1a576040519150601f19603f3d011682016040523d82523d6000602084013e610c1f565b606091505b5050905080610c63576040517f08c379a0000000000000000000000000000000000000000000000000000000008152600401610c5a90614365565b60405180910390fd5b5050565b610c8283838360405180602001604052806000815250611196565b505050565b600e6020528060005260406000206000915090508054610ca6906140a2565b80601f0160208091040260200160405190810160405280929190818152602001828054610cd2906140a2565b8015610d1f5780601f10610cf457610100808354040283529160200191610d1f565b820191906000526020600020905b815481529060010190602001808311610d0257829003601f168201915b505050505081565b600080610d7784848080601f016020809104026020016040519081016040528093929190818152602001838380828437600081840152601f19601f82011690508083019250505050505050612373565b905060008111610d8657600080fd5b6003811415610d9a57610352915050610dc1565b6004811415610db457670429d069189e0000915050610dc1565b67016345785d8a00009150505b92915050565b600d818051602081018201805184825260208301602085012081835280955050505050506000915090508054610dfc906140a2565b80601f0160208091040260200160405190810160405280929190818152602001828054610e28906140a2565b8015610e755780601f10610e4a57610100808354040283529160200191610e75565b820191906000526020600020905b815481529060010190602001808311610e5857829003601f168201915b505050505081565b600080610e8983612528565b9050600073ffffffffffffffffffffffffffffffffffffffff168173ffffffffffffffffffffffffffffffffffffffff161415610efb576040517f08c379a0000000000000000000000000000000000000000000000000000000008152600401610ef2906143d1565b60405180910390fd5b80915050919050565b60008073ffffffffffffffffffffffffffffffffffffffff168273ffffffffffffffffffffffffffffffffffffffff161415610f75576040517f08c379a0000000000000000000000000000000000000000000000000000000008152600401610f6c90614463565b60405180910390fd5b600360008373ffffffffffffffffffffffffffffffffffffffff1673ffffffffffffffffffffffffffffffffffffffff168152602001908152602001600020549050919050565b600760009054906101000a900473ffffffffffffffffffffffffffffffffffffffff1681565b6000600760009054906101000a900473ffffffffffffffffffffffffffffffffffffffff1673ffffffffffffffffffffffffffffffffffffffff163373ffffffffffffffffffffffffffffffffffffffff1614905090565b606060018054611049906140a2565b80601f0160208091040260200160405190810160405280929190818152602001828054611075906140a2565b80156110c25780601f10611097576101008083540402835291602001916110c2565b820191906000526020600020905b8154815290600101906020018083116110a557829003601f168201915b5050505050905090565b6000600361111d84848080601f016020809104026020016040519081016040528093929190818152602001838380828437600081840152601f19601f82011690508083019250505050505050612373565b101580156111785750600a61117584848080601f016020809104026020016040519081016040528093929190818152602001838380828437600081840152601f19601f82011690508083019250505050505050612373565b11155b905092915050565b61119261118b611f23565b8383612565565b5050565b6111a76111a1611f23565b83611fe4565b6111e6576040517f08c379a00000000000000000000000000000000000000000000000000000000081526004016111dd906142b3565b60405180910390fd5b6111f2848484846126d2565b50505050565b600061126060405180606001604052806033815260200161529c6033913984848080601f016020809104026020016040519081016040528093929190818152602001838380828437600081840152601f19601f8201169050808301925050505050505061272e565b61129e6040518060400160405280600681526020017f5568204168210000000000000000000000000000000000000000000000000000815250611dd5565b600c83836040516112b0929190614228565b908152602001604051809103902060009054906101000a900473ffffffffffffffffffffffffffffffffffffffff16905092915050565b61130860405180606001604052806032815260200161515c60329139611dd5565b600c848460405161131a929190614228565b908152602001604051809103902060009054906101000a900473ffffffffffffffffffffffffffffffffffffffff1673ffffffffffffffffffffffffffffffffffffffff163373ffffffffffffffffffffffffffffffffffffffff16146113ad576040517f82b4290000000000000000000000000000000000000000000000000000000000815260040160405180910390fd5b6114756040518060400160405280601a81526020017f53657474696e67207265636f7264206f6620257320746f20257300000000000081525085858080601f016020809104026020016040519081016040528093929190818152602001838380828437600081840152601f19601f8201169050808301925050505050505084848080601f016020809104026020016040519081016040528093929190818152602001838380828437600081840152601f19601f820116905080830192505050505050506127ca565b8181600d8686604051611489929190614228565b908152602001604051809103902091906114a4929190613605565b5050505050565b60606114b682611ed8565b60006006600084815260200190815260200160002080546114d6906140a2565b80601f0160208091040260200160405190810160405280929190818152602001828054611502906140a2565b801561154f5780601f106115245761010080835404028352916020019161154f565b820191906000526020600020905b81548152906001019060200180831161153257829003601f168201915b505050505090506000611560612869565b90506000815114156115765781925050506115b9565b6000825111156115ab5780826040516020016115939291906144b4565b604051602081830303815290604052925050506115b9565b6115b484612880565b925050505b919050565b6000600560008473ffffffffffffffffffffffffffffffffffffffff1673ffffffffffffffffffffffffffffffffffffffff16815260200190815260200160002060008373ffffffffffffffffffffffffffffffffffffffff1673ffffffffffffffffffffffffffffffffffffffff16815260200190815260200160002060009054906101000a900460ff16905092915050565b600073ffffffffffffffffffffffffffffffffffffffff16600c838360405161167c929190614228565b908152602001604051809103902060009054906101000a900473ffffffffffffffffffffffffffffffffffffffff1673ffffffffffffffffffffffffffffffffffffffff16146116f8576040517f3a81d6fc00000000000000000000000000000000000000000000000000000000815260040160405180910390fd5b61170282826110cc565b6117455781816040517f7f19f48d00000000000000000000000000000000000000000000000000000000815260040161173c929190614505565b60405180910390fd5b60006117518383610d27565b90506117936040518060400160405280601981526020017f2573206861732073656e74206f6e6c79202573204d617469630000000000000081525033346128e8565b803410156117d6576040517f08c379a00000000000000000000000000000000000000000000000000000000081526004016117cd90614575565b60405180910390fd5b6000838360096040516020016117ee93929190614675565b60405160208183030381529060405290506000600a82600b604051602001611818939291906146a6565b604051602081830303815290604052905060006118356008612987565b90506118766040518060400160405280601b81526020017f4e6577207265636f72642049642067656e6572617465643a202573000000000081525082612995565b60006118c587878080601f016020809104026020016040519081016040528093929190818152602001838380828437600081840152601f19601f82011690508083019250505050505050612373565b905060006118d282612a31565b90506119c66040518060600160405280603181526020016151f26031913989898080601f016020809104026020016040519081016040528093929190818152602001838380828437600081840152601f19601f8201169050808301925050505050505060098054611942906140a2565b80601f016020809104026020016040519081016040528092919081815260200182805461196e906140a2565b80156119bb5780601f10611990576101008083540402835291602001916119bb565b820191906000526020600020905b81548152906001019060200180831161199e57829003601f168201915b505050505086612b09565b60006119fc866119d587612bab565b846040516020016119e893929190614853565b604051602081830303815290604052612bab565b9050600081604051602001611a1191906148fc565b6040516020818303038152906040529050611a4360405180606001604052806039815260200161518e60399139611dd5565b611a826040518060400160405280600e81526020017f46696e616c20746f6b656e5552490000000000000000000000000000000000008152508261272e565b611aa360405180606001604052806039815260200161522360399139611dd5565b611aad3386612d0f565b611ab78582612d2d565b33600c8b8b604051611aca929190614228565b908152602001604051809103902060006101000a81548173ffffffffffffffffffffffffffffffffffffffff021916908373ffffffffffffffffffffffffffffffffffffffff160217905550611bbe6040518060600160405280602b81526020016151c7602b9139338c8c8080601f016020809104026020016040519081016040528093929190818152602001838380828437600081840152601f19601f82011690508083019250505050505050600c8e8e604051611b8a929190614228565b908152602001604051809103902060009054906101000a900473ffffffffffffffffffffffffffffffffffffffff16612da1565b8989600e60008881526020019081526020016000209190611be0929190613605565b50611beb6008612e43565b50505050505050505050565b6060611c376040518060400160405280601f81526020017f47657474696e6720616c6c206e616d65732066726f6d20636f6e747261637400815250611dd5565b6000611c436008612987565b67ffffffffffffffff811115611c5c57611c5b613aed565b5b604051908082528060200260200182016040528015611c8f57816020015b6060815260200190600190039081611c7a5790505b50905060005b611c9f6008612987565b811015611dcd57600e60008281526020019081526020016000208054611cc4906140a2565b80601f0160208091040260200160405190810160405280929190818152602001828054611cf0906140a2565b8015611d3d5780601f10611d1257610100808354040283529160200191611d3d565b820191906000526020600020905b815481529060010190602001808311611d2057829003601f168201915b5050505050828281518110611d5557611d5461491e565b5b6020026020010181905250611dba6040518060400160405280601781526020017f4e616d6520666f7220746f6b656e20256420697320257300000000000000000081525082848481518110611dad57611dac61491e565b5b6020026020010151612e59565b8080611dc59061497c565b915050611c95565b508091505090565b611e6b81604051602401611de99190613896565b6040516020818303038152906040527f41304fac000000000000000000000000000000000000000000000000000000007bffffffffffffffffffffffffffffffffffffffffffffffffffffffff19166020820180517bffffffffffffffffffffffffffffffffffffffffffffffffffffffff8381831617835250505050612ef8565b50565b60007f01ffc9a7000000000000000000000000000000000000000000000000000000007bffffffffffffffffffffffffffffffffffffffffffffffffffffffff1916827bffffffffffffffffffffffffffffffffffffffffffffffffffffffff1916149050919050565b611ee181612f21565b611f20576040517f08c379a0000000000000000000000000000000000000000000000000000000008152600401611f17906143d1565b60405180910390fd5b50565b600033905090565b816004600083815260200190815260200160002060006101000a81548173ffffffffffffffffffffffffffffffffffffffff021916908373ffffffffffffffffffffffffffffffffffffffff160217905550808273ffffffffffffffffffffffffffffffffffffffff16611f9e83610e7d565b73ffffffffffffffffffffffffffffffffffffffff167f8c5be1e5ebec7d5bd14f71427d1e84f3dd0314c0f7b2291e5b200ac8c7c3b92560405160405180910390a45050565b600080611ff083610e7d565b90508073ffffffffffffffffffffffffffffffffffffffff168473ffffffffffffffffffffffffffffffffffffffff161480612032575061203181856115be565b5b8061207057508373ffffffffffffffffffffffffffffffffffffffff1661205884610859565b73ffffffffffffffffffffffffffffffffffffffff16145b91505092915050565b8273ffffffffffffffffffffffffffffffffffffffff1661209982610e7d565b73ffffffffffffffffffffffffffffffffffffffff16146120ef576040517f08c379a00000000000000000000000000000000000000000000000000000000081526004016120e690614a37565b60405180910390fd5b600073ffffffffffffffffffffffffffffffffffffffff168273ffffffffffffffffffffffffffffffffffffffff16141561215f576040517f08c379a000000000000000000000000000000000000000000000000000000000815260040161215690614ac9565b60405180910390fd5b61216c8383836001612f62565b8273ffffffffffffffffffffffffffffffffffffffff1661218c82610e7d565b73ffffffffffffffffffffffffffffffffffffffff16146121e2576040517f08c379a00000000000000000000000000000000000000000000000000000000081526004016121d990614a37565b60405180910390fd5b6004600082815260200190815260200160002060006101000a81549073ffffffffffffffffffffffffffffffffffffffff02191690556001600360008573ffffffffffffffffffffffffffffffffffffffff1673ffffffffffffffffffffffffffffffffffffffff168152602001908152602001600020600082825403925050819055506001600360008473ffffffffffffffffffffffffffffffffffffffff1673ffffffffffffffffffffffffffffffffffffffff16815260200190815260200160002060008282540192505081905550816002600083815260200190815260200160002060006101000a81548173ffffffffffffffffffffffffffffffffffffffff021916908373ffffffffffffffffffffffffffffffffffffffff160217905550808273ffffffffffffffffffffffffffffffffffffffff168473ffffffffffffffffffffffffffffffffffffffff167fddf252ad1be2c89b69c2b068fc378daa952ba7f163c4a11628f55a4df523b3ef60405160405180910390a461236e8383836001613088565b505050565b60008060008084519050600092505b8082101561251d57600085838151811061239f5761239e61491e565b5b602001015160f81c60f81b9050608060f81b817effffffffffffffffffffffffffffffffffffffffffffffffffffffffffffff191610156123ee576001836123e79190614ae9565b9250612509565b60e060f81b817effffffffffffffffffffffffffffffffffffffffffffffffffffffffffffff19161015612430576002836124299190614ae9565b9250612508565b60f060f81b817effffffffffffffffffffffffffffffffffffffffffffffffffffffffffffff191610156124725760038361246b9190614ae9565b9250612507565b60f8801b817effffffffffffffffffffffffffffffffffffffffffffffffffffffffffffff191610156124b3576004836124ac9190614ae9565b9250612506565b60fc60f81b817effffffffffffffffffffffffffffffffffffffffffffffffffffffffffffff191610156124f5576005836124ee9190614ae9565b9250612505565b6006836125029190614ae9565b92505b5b5b5b5b5082806125159061497c565b935050612382565b829350505050919050565b60006002600083815260200190815260200160002060009054906101000a900473ffffffffffffffffffffffffffffffffffffffff169050919050565b8173ffffffffffffffffffffffffffffffffffffffff168373ffffffffffffffffffffffffffffffffffffffff1614156125d4576040517f08c379a00000000000000000000000000000000000000000000000000000000081526004016125cb90614b8b565b60405180910390fd5b80600560008573ffffffffffffffffffffffffffffffffffffffff1673ffffffffffffffffffffffffffffffffffffffff16815260200190815260200160002060008473ffffffffffffffffffffffffffffffffffffffff1673ffffffffffffffffffffffffffffffffffffffff16815260200190815260200160002060006101000a81548160ff0219169083151502179055508173ffffffffffffffffffffffffffffffffffffffff168373ffffffffffffffffffffffffffffffffffffffff167f17307eab39ab6107e8899845ad3d59bd9653f200f220920489ca2b5937696c31836040516126c591906137e2565b60405180910390a3505050565b6126dd848484612079565b6126e98484848461308e565b612728576040517f08c379a000000000000000000000000000000000000000000000000000000000815260040161271f90614c1d565b60405180910390fd5b50505050565b6127c68282604051602401612744929190614c3d565b6040516020818303038152906040527f4b5c4277000000000000000000000000000000000000000000000000000000007bffffffffffffffffffffffffffffffffffffffffffffffffffffffff19166020820180517bffffffffffffffffffffffffffffffffffffffffffffffffffffffff8381831617835250505050612ef8565b5050565b6128648383836040516024016127e293929190614c74565b6040516020818303038152906040527f2ced7cef000000000000000000000000000000000000000000000000000000007bffffffffffffffffffffffffffffffffffffffffffffffffffffffff19166020820180517bffffffffffffffffffffffffffffffffffffffffffffffffffffffff8381831617835250505050612ef8565b505050565b606060405180602001604052806000815250905090565b606061288b82611ed8565b6000612895612869565b905060008151116128b557604051806020016040528060008152506128e0565b806128bf84612a31565b6040516020016128d09291906144b4565b6040516020818303038152906040525b915050919050565b61298283838360405160240161290093929190614cc0565b6040516020818303038152906040527f0d26b925000000000000000000000000000000000000000000000000000000007bffffffffffffffffffffffffffffffffffffffffffffffffffffffff19166020820180517bffffffffffffffffffffffffffffffffffffffffffffffffffffffff8381831617835250505050612ef8565b505050565b600081600001549050919050565b612a2d82826040516024016129ab929190614cfe565b6040516020818303038152906040527fb60e72cc000000000000000000000000000000000000000000000000000000007bffffffffffffffffffffffffffffffffffffffffffffffffffffffff19166020820180517bffffffffffffffffffffffffffffffffffffffffffffffffffffffff8381831617835250505050612ef8565b5050565b606060006001612a4084613216565b01905060008167ffffffffffffffff811115612a5f57612a5e613aed565b5b6040519080825280601f01601f191660200182016040528015612a915781602001600182028036833780820191505090505b509050600082602001820190505b600115612afe578080600190039150507f3031323334353637383961626364656600000000000000000000000000000000600a86061a8153600a8581612ae857612ae7614d2e565b5b0494506000851415612af957612afe565b612a9f565b819350505050919050565b612ba584848484604051602401612b239493929190614d5d565b6040516020818303038152906040527f8eafb02b000000000000000000000000000000000000000000000000000000007bffffffffffffffffffffffffffffffffffffffffffffffffffffffff19166020820180517bffffffffffffffffffffffffffffffffffffffffffffffffffffffff8381831617835250505050612ef8565b50505050565b6060600082511415612bce57604051806020016040528060008152509050612d0a565b600060405180606001604052806040815260200161525c6040913990506000600360028551612bfd9190614ae9565b612c079190614db7565b6004612c139190614de8565b67ffffffffffffffff811115612c2c57612c2b613aed565b5b6040519080825280601f01601f191660200182016040528015612c5e5781602001600182028036833780820191505090505b509050600182016020820185865187015b80821015612cca576003820191508151603f8160121c168501518453600184019350603f81600c1c168501518453600184019350603f8160061c168501518453600184019350603f8116850151845360018401935050612c6f565b5050600386510660018114612ce65760028114612cf957612d01565b603d6001830353603d6002830353612d01565b603d60018303535b50505080925050505b919050565b612d29828260405180602001604052806000815250613369565b5050565b612d3682612f21565b612d75576040517f08c379a0000000000000000000000000000000000000000000000000000000008152600401612d6c90614eb4565b60405180910390fd5b80600660008481526020019081526020016000209080519060200190612d9c92919061368b565b505050565b612e3d84848484604051602401612dbb9493929190614ed4565b6040516020818303038152906040527faabc9a31000000000000000000000000000000000000000000000000000000007bffffffffffffffffffffffffffffffffffffffffffffffffffffffff19166020820180517bffffffffffffffffffffffffffffffffffffffffffffffffffffffff8381831617835250505050612ef8565b50505050565b6001816000016000828254019250508190555050565b612ef3838383604051602401612e7193929190614f27565b6040516020818303038152906040527f5970e089000000000000000000000000000000000000000000000000000000007bffffffffffffffffffffffffffffffffffffffffffffffffffffffff19166020820180517bffffffffffffffffffffffffffffffffffffffffffffffffffffffff8381831617835250505050612ef8565b505050565b60008151905060006a636f6e736f6c652e6c6f679050602083016000808483855afa5050505050565b60008073ffffffffffffffffffffffffffffffffffffffff16612f4383612528565b73ffffffffffffffffffffffffffffffffffffffff1614159050919050565b600181111561308257600073ffffffffffffffffffffffffffffffffffffffff168473ffffffffffffffffffffffffffffffffffffffff1614612ff65780600360008673ffffffffffffffffffffffffffffffffffffffff1673ffffffffffffffffffffffffffffffffffffffff1681526020019081526020016000206000828254612fee9190614f6c565b925050819055505b600073ffffffffffffffffffffffffffffffffffffffff168373ffffffffffffffffffffffffffffffffffffffff16146130815780600360008573ffffffffffffffffffffffffffffffffffffffff1673ffffffffffffffffffffffffffffffffffffffff16815260200190815260200160002060008282546130799190614ae9565b925050819055505b5b50505050565b50505050565b60006130af8473ffffffffffffffffffffffffffffffffffffffff166133c4565b15613209578373ffffffffffffffffffffffffffffffffffffffff1663150b7a026130d8611f23565b8786866040518563ffffffff1660e01b81526004016130fa9493929190614ff5565b6020604051808303816000875af192505050801561313657506040513d601f19601f820116820180604052508101906131339190615056565b60015b6131b9573d8060008114613166576040519150601f19603f3d011682016040523d82523d6000602084013e61316b565b606091505b506000815114156131b1576040517f08c379a00000000000000000000000000000000000000000000000000000000081526004016131a890614c1d565b60405180910390fd5b805181602001fd5b63150b7a0260e01b7bffffffffffffffffffffffffffffffffffffffffffffffffffffffff1916817bffffffffffffffffffffffffffffffffffffffffffffffffffffffff19161491505061320e565b600190505b949350505050565b600080600090507a184f03e93ff9f4daa797ed6e38ed64bf6a1f0100000000000000008310613274577a184f03e93ff9f4daa797ed6e38ed64bf6a1f010000000000000000838161326a57613269614d2e565b5b0492506040810190505b6d04ee2d6d415b85acef810000000083106132b1576d04ee2d6d415b85acef810000000083816132a7576132a6614d2e565b5b0492506020810190505b662386f26fc1000083106132e057662386f26fc1000083816132d6576132d5614d2e565b5b0492506010810190505b6305f5e1008310613309576305f5e10083816132ff576132fe614d2e565b5b0492506008810190505b612710831061332e57612710838161332457613323614d2e565b5b0492506004810190505b60648310613351576064838161334757613346614d2e565b5b0492506002810190505b600a8310613360576001810190505b80915050919050565b61337383836133e7565b613380600084848461308e565b6133bf576040517f08c379a00000000000000000000000000000000000000000000000000000000081526004016133b690614c1d565b60405180910390fd5b505050565b6000808273ffffffffffffffffffffffffffffffffffffffff163b119050919050565b600073ffffffffffffffffffffffffffffffffffffffff168273ffffffffffffffffffffffffffffffffffffffff161415613457576040517f08c379a000000000000000000000000000000000000000000000000000000000815260040161344e906150cf565b60405180910390fd5b61346081612f21565b156134a0576040517f08c379a00000000000000000000000000000000000000000000000000000000081526004016134979061513b565b60405180910390fd5b6134ae600083836001612f62565b6134b781612f21565b156134f7576040517f08c379a00000000000000000000000000000000000000000000000000000000081526004016134ee9061513b565b60405180910390fd5b6001600360008473ffffffffffffffffffffffffffffffffffffffff1673ffffffffffffffffffffffffffffffffffffffff16815260200190815260200160002060008282540192505081905550816002600083815260200190815260200160002060006101000a81548173ffffffffffffffffffffffffffffffffffffffff021916908373ffffffffffffffffffffffffffffffffffffffff160217905550808273ffffffffffffffffffffffffffffffffffffffff16600073ffffffffffffffffffffffffffffffffffffffff167fddf252ad1be2c89b69c2b068fc378daa952ba7f163c4a11628f55a4df523b3ef60405160405180910390a4613601600083836001613088565b5050565b828054613611906140a2565b90600052602060002090601f016020900481019282613633576000855561367a565b82601f1061364c57803560ff191683800117855561367a565b8280016001018555821561367a579182015b8281111561367957823582559160200191906001019061365e565b5b5090506136879190613711565b5090565b828054613697906140a2565b90600052602060002090601f0160209004810192826136b95760008555613700565b82601f106136d257805160ff1916838001178555613700565b82800160010185558215613700579182015b828111156136ff5782518255916020019190600101906136e4565b5b50905061370d9190613711565b5090565b5b8082111561372a576000816000905550600101613712565b5090565b6000604051905090565b600080fd5b600080fd5b60007fffffffff0000000000000000000000000000000000000000000000000000000082169050919050565b61377781613742565b811461378257600080fd5b50565b6000813590506137948161376e565b92915050565b6000602082840312156137b0576137af613738565b5b60006137be84828501613785565b91505092915050565b60008115159050919050565b6137dc816137c7565b82525050565b60006020820190506137f760008301846137d3565b92915050565b600081519050919050565b600082825260208201905092915050565b60005b8381101561383757808201518184015260208101905061381c565b83811115613846576000848401525b50505050565b6000601f19601f8301169050919050565b6000613868826137fd565b6138728185613808565b9350613882818560208601613819565b61388b8161384c565b840191505092915050565b600060208201905081810360008301526138b0818461385d565b905092915050565b6000819050919050565b6138cb816138b8565b81146138d657600080fd5b50565b6000813590506138e8816138c2565b92915050565b60006020828403121561390457613903613738565b5b6000613912848285016138d9565b91505092915050565b600073ffffffffffffffffffffffffffffffffffffffff82169050919050565b60006139468261391b565b9050919050565b6139568161393b565b82525050565b6000602082019050613971600083018461394d565b92915050565b6139808161393b565b811461398b57600080fd5b50565b60008135905061399d81613977565b92915050565b600080604083850312156139ba576139b9613738565b5b60006139c88582860161398e565b92505060206139d9858286016138d9565b9150509250929050565b600080fd5b600080fd5b600080fd5b60008083601f840112613a0857613a076139e3565b5b8235905067ffffffffffffffff811115613a2557613a246139e8565b5b602083019150836001820283011115613a4157613a406139ed565b5b9250929050565b60008060208385031215613a5f57613a5e613738565b5b600083013567ffffffffffffffff811115613a7d57613a7c61373d565b5b613a89858286016139f2565b92509250509250929050565b600080600060608486031215613aae57613aad613738565b5b6000613abc8682870161398e565b9350506020613acd8682870161398e565b9250506040613ade868287016138d9565b9150509250925092565b600080fd5b7f4e487b7100000000000000000000000000000000000000000000000000000000600052604160045260246000fd5b613b258261384c565b810181811067ffffffffffffffff82111715613b4457613b43613aed565b5b80604052505050565b6000613b5761372e565b9050613b638282613b1c565b919050565b600067ffffffffffffffff821115613b8357613b82613aed565b5b613b8c8261384c565b9050602081019050919050565b82818337600083830152505050565b6000613bbb613bb684613b68565b613b4d565b905082815260208101848484011115613bd757613bd6613ae8565b5b613be2848285613b99565b509392505050565b600082601f830112613bff57613bfe6139e3565b5b8135613c0f848260208601613ba8565b91505092915050565b600060208284031215613c2e57613c2d613738565b5b600082013567ffffffffffffffff811115613c4c57613c4b61373d565b5b613c5884828501613bea565b91505092915050565b613c6a816138b8565b82525050565b6000602082019050613c856000830184613c61565b92915050565b600060208284031215613ca157613ca0613738565b5b6000613caf8482850161398e565b91505092915050565b6000613cc38261391b565b9050919050565b613cd381613cb8565b82525050565b6000602082019050613cee6000830184613cca565b92915050565b613cfd816137c7565b8114613d0857600080fd5b50565b600081359050613d1a81613cf4565b92915050565b60008060408385031215613d3757613d36613738565b5b6000613d458582860161398e565b9250506020613d5685828601613d0b565b9150509250929050565b600067ffffffffffffffff821115613d7b57613d7a613aed565b5b613d848261384c565b9050602081019050919050565b6000613da4613d9f84613d60565b613b4d565b905082815260208101848484011115613dc057613dbf613ae8565b5b613dcb848285613b99565b509392505050565b600082601f830112613de857613de76139e3565b5b8135613df8848260208601613d91565b91505092915050565b60008060008060808587031215613e1b57613e1a613738565b5b6000613e298782880161398e565b9450506020613e3a8782880161398e565b9350506040613e4b878288016138d9565b925050606085013567ffffffffffffffff811115613e6c57613e6b61373d565b5b613e7887828801613dd3565b91505092959194509250565b60008060008060408587031215613e9e57613e9d613738565b5b600085013567ffffffffffffffff811115613ebc57613ebb61373d565b5b613ec8878288016139f2565b9450945050602085013567ffffffffffffffff811115613eeb57613eea61373d565b5b613ef7878288016139f2565b925092505092959194509250565b60008060408385031215613f1c57613f1b613738565b5b6000613f2a8582860161398e565b9250506020613f3b8582860161398e565b9150509250929050565b600081519050919050565b600082825260208201905092915050565b6000819050602082019050919050565b600082825260208201905092915050565b6000613f8d826137fd565b613f978185613f71565b9350613fa7818560208601613819565b613fb08161384c565b840191505092915050565b6000613fc78383613f82565b905092915050565b6000602082019050919050565b6000613fe782613f45565b613ff18185613f50565b93508360208202850161400385613f61565b8060005b8581101561403f57848403895281516140208582613fbb565b945061402b83613fcf565b925060208a01995050600181019050614007565b50829750879550505050505092915050565b6000602082019050818103600083015261406b8184613fdc565b905092915050565b7f4e487b7100000000000000000000000000000000000000000000000000000000600052602260045260246000fd5b600060028204905060018216806140ba57607f821691505b602082108114156140ce576140cd614073565b5b50919050565b7f4552433732313a20617070726f76616c20746f2063757272656e74206f776e6560008201527f7200000000000000000000000000000000000000000000000000000000000000602082015250565b6000614130602183613808565b915061413b826140d4565b604082019050919050565b6000602082019050818103600083015261415f81614123565b9050919050565b7f4552433732313a20617070726f76652063616c6c6572206973206e6f7420746f60008201527f6b656e206f776e6572206f7220617070726f76656420666f7220616c6c000000602082015250565b60006141c2603d83613808565b91506141cd82614166565b604082019050919050565b600060208201905081810360008301526141f1816141b5565b9050919050565b600081905092915050565b600061420f83856141f8565b935061421c838584613b99565b82840190509392505050565b6000614235828486614203565b91508190509392505050565b7f4552433732313a2063616c6c6572206973206e6f7420746f6b656e206f776e6560008201527f72206f7220617070726f76656400000000000000000000000000000000000000602082015250565b600061429d602d83613808565b91506142a882614241565b604082019050919050565b600060208201905081810360008301526142cc81614290565b9050919050565b600081905092915050565b50565b60006142ee6000836142d3565b91506142f9826142de565b600082019050919050565b600061430f826142e1565b9150819050919050565b7f4661696c656420746f207769746864726177204d617469630000000000000000600082015250565b600061434f601883613808565b915061435a82614319565b602082019050919050565b6000602082019050818103600083015261437e81614342565b9050919050565b7f4552433732313a20696e76616c696420746f6b656e2049440000000000000000600082015250565b60006143bb601883613808565b91506143c682614385565b602082019050919050565b600060208201905081810360008301526143ea816143ae565b9050919050565b7f4552433732313a2061646472657373207a65726f206973206e6f74206120766160008201527f6c6964206f776e65720000000000000000000000000000000000000000000000602082015250565b600061444d602983613808565b9150614458826143f1565b604082019050919050565b6000602082019050818103600083015261447c81614440565b9050919050565b600061448e826137fd565b61449881856141f8565b93506144a8818560208601613819565b80840191505092915050565b60006144c08285614483565b91506144cc8284614483565b91508190509392505050565b60006144e48385613808565b93506144f1838584613b99565b6144fa8361384c565b840190509392505050565b600060208201905081810360008301526145208184866144d8565b90509392505050565b7f496e737566666963656e742070616964206d6f6e657900000000000000000000600082015250565b600061455f601683613808565b915061456a82614529565b602082019050919050565b6000602082019050818103600083015261458e81614552565b9050919050565b7f2e00000000000000000000000000000000000000000000000000000000000000600082015250565b60006145cb6001836141f8565b91506145d682614595565b600182019050919050565b60008190508160005260206000209050919050565b60008154614603816140a2565b61460d81866141f8565b9450600182166000811461462857600181146146395761466c565b60ff1983168652818601935061466c565b614642856145e1565b60005b8381101561466457815481890152600182019150602081019050614645565b838801955050505b50505092915050565b6000614682828587614203565b915061468d826145be565b915061469982846145f6565b9150819050949350505050565b60006146b282866145f6565b91506146be8285614483565b91506146ca82846145f6565b9150819050949350505050565b7f7b226e616d65223a202200000000000000000000000000000000000000000000600082015250565b600061470d600a836141f8565b9150614718826146d7565b600a82019050919050565b7f222c20226465736372697074696f6e223a20224120646f6d61696e206f6e207460008201527f6865204e696e6a61206e616d652073657276696365222c2022696d616765223a60208201527f2022646174613a696d6167652f7376672b786d6c3b6261736536342c00000000604082015250565b60006147a5605c836141f8565b91506147b082614723565b605c82019050919050565b7f222c226c656e677468223a220000000000000000000000000000000000000000600082015250565b60006147f1600c836141f8565b91506147fc826147bb565b600c82019050919050565b7f227d000000000000000000000000000000000000000000000000000000000000600082015250565b600061483d6002836141f8565b915061484882614807565b600282019050919050565b600061485e82614700565b915061486a8286614483565b915061487582614798565b91506148818285614483565b915061488c826147e4565b91506148988284614483565b91506148a382614830565b9150819050949350505050565b7f646174613a6170706c69636174696f6e2f6a736f6e3b6261736536342c000000600082015250565b60006148e6601d836141f8565b91506148f1826148b0565b601d82019050919050565b6000614907826148d9565b91506149138284614483565b915081905092915050565b7f4e487b7100000000000000000000000000000000000000000000000000000000600052603260045260246000fd5b7f4e487b7100000000000000000000000000000000000000000000000000000000600052601160045260246000fd5b6000614987826138b8565b91507fffffffffffffffffffffffffffffffffffffffffffffffffffffffffffffffff8214156149ba576149b961494d565b5b600182019050919050565b7f4552433732313a207472616e736665722066726f6d20696e636f72726563742060008201527f6f776e6572000000000000000000000000000000000000000000000000000000602082015250565b6000614a21602583613808565b9150614a2c826149c5565b604082019050919050565b60006020820190508181036000830152614a5081614a14565b9050919050565b7f4552433732313a207472616e7366657220746f20746865207a65726f2061646460008201527f7265737300000000000000000000000000000000000000000000000000000000602082015250565b6000614ab3602483613808565b9150614abe82614a57565b604082019050919050565b60006020820190508181036000830152614ae281614aa6565b9050919050565b6000614af4826138b8565b9150614aff836138b8565b9250827fffffffffffffffffffffffffffffffffffffffffffffffffffffffffffffffff03821115614b3457614b3361494d565b5b828201905092915050565b7f4552433732313a20617070726f766520746f2063616c6c657200000000000000600082015250565b6000614b75601983613808565b9150614b8082614b3f565b602082019050919050565b60006020820190508181036000830152614ba481614b68565b9050919050565b7f4552433732313a207472616e7366657220746f206e6f6e20455243373231526560008201527f63656976657220696d706c656d656e7465720000000000000000000000000000602082015250565b6000614c07603283613808565b9150614c1282614bab565b604082019050919050565b60006020820190508181036000830152614c3681614bfa565b9050919050565b60006040820190508181036000830152614c57818561385d565b90508181036020830152614c6b818461385d565b90509392505050565b60006060820190508181036000830152614c8e818661385d565b90508181036020830152614ca2818561385d565b90508181036040830152614cb6818461385d565b9050949350505050565b60006060820190508181036000830152614cda818661385d565b9050614ce9602083018561394d565b614cf66040830184613c61565b949350505050565b60006040820190508181036000830152614d18818561385d565b9050614d276020830184613c61565b9392505050565b7f4e487b7100000000000000000000000000000000000000000000000000000000600052601260045260246000fd5b60006080820190508181036000830152614d77818761385d565b90508181036020830152614d8b818661385d565b90508181036040830152614d9f818561385d565b9050614dae6060830184613c61565b95945050505050565b6000614dc2826138b8565b9150614dcd836138b8565b925082614ddd57614ddc614d2e565b5b828204905092915050565b6000614df3826138b8565b9150614dfe836138b8565b9250817fffffffffffffffffffffffffffffffffffffffffffffffffffffffffffffffff0483118215151615614e3757614e3661494d565b5b828202905092915050565b7f45524337323155524953746f726167653a2055524920736574206f66206e6f6e60008201527f6578697374656e7420746f6b656e000000000000000000000000000000000000602082015250565b6000614e9e602e83613808565b9150614ea982614e42565b604082019050919050565b60006020820190508181036000830152614ecd81614e91565b9050919050565b60006080820190508181036000830152614eee818761385d565b9050614efd602083018661394d565b8181036040830152614f0f818561385d565b9050614f1e606083018461394d565b95945050505050565b60006060820190508181036000830152614f41818661385d565b9050614f506020830185613c61565b8181036040830152614f62818461385d565b9050949350505050565b6000614f77826138b8565b9150614f82836138b8565b925082821015614f9557614f9461494d565b5b828203905092915050565b600081519050919050565b600082825260208201905092915050565b6000614fc782614fa0565b614fd18185614fab565b9350614fe1818560208601613819565b614fea8161384c565b840191505092915050565b600060808201905061500a600083018761394d565b615017602083018661394d565b6150246040830185613c61565b81810360608301526150368184614fbc565b905095945050505050565b6000815190506150508161376e565b92915050565b60006020828403121561506c5761506b613738565b5b600061507a84828501615041565b91505092915050565b7f4552433732313a206d696e7420746f20746865207a65726f2061646472657373600082015250565b60006150b9602083613808565b91506150c482615083565b602082019050919050565b600060208201905081810360008301526150e8816150ac565b9050919050565b7f4552433732313a20746f6b656e20616c7265616479206d696e74656400000000600082015250565b6000615125601c83613808565b9150615130826150ef565b602082019050919050565b6000602082019050818103600083015261515481615118565b905091905056fe436865636b696e67204966207472616e73616374696f6e2073656e646572206973207468652061637475616c206f776e65720a2d2d2d2d2d2d2d2d2d2d2d2d2d2d2d2d2d2d2d2d2d2d2d2d2d2d2d2d2d2d2d2d2d2d2d2d2d2d2d2d2d2d2d2d2d2d2d2d2d2d2d2d2d2d2d2d2573206861732072656769737465726564206120646f6d61696e20257320746f20616464726573732025735265676973746572696e672025732e2573206f6e2074686520636f6e7472616374207769746820746f6b656e49442025642d2d2d2d2d2d2d2d2d2d2d2d2d2d2d2d2d2d2d2d2d2d2d2d2d2d2d2d2d2d2d2d2d2d2d2d2d2d2d2d2d2d2d2d2d2d2d2d2d2d2d2d2d2d2d2d0a4142434445464748494a4b4c4d4e4f505152535455565758595a6162636465666768696a6b6c6d6e6f707172737475767778797a303132333435363738392b2f5265717565737420726563656976656420746f20676574206164647265737320666f7220646f6d61696e206e616d6520257320a2646970667358221220f47516891c3e913a898b19ec7443f1ba745d6b8ae0d4fc3cbe4be3533cc2429d64736f6c634300080a003352656d656d62657220796f7520617265206c6561726e696e6720736d61727420636f6e74726163747320616761696e2e204669727374207374657020616761696e2e3c73766720786d6c6e733d22687474703a2f2f7777772e77332e6f72672f323030302f737667222066696c6c3d226e6f6e65222077696474683d2231323022206865696768743d22313230223e3c706174682066696c6c3d2275726c282342292220643d224d302030683237307632373048307a223e3c2f706174683e3c646566733e3c66696c7465722069643d22412220636f6c6f722d696e746572706f6c6174696f6e2d66696c746572733d2273524742222066696c746572556e6974733d227573657253706163654f6e55736522206865696768743d22323730222077696474683d22323730223e3c666544726f70536861646f772064783d2230222064793d22312220737464446576696174696f6e3d22322220666c6f6f642d6f7061636974793d222e323235222077696474683d223230302522206865696768743d2232303025223e3c2f666544726f70536861646f773e3c2f66696c7465723e3c2f646566733e3c646566733e3c6c696e6561724772616469656e742069643d2242222078313d2230222079313d2230222078323d22323730222079323d2232373022206772616469656e74556e6974733d227573657253706163654f6e557365223e3c73746f702073746f702d636f6c6f723d2223636235656565223e3c2f73746f703e3c73746f70206f66667365743d2231222073746f702d636f6c6f723d2223306364376534222073746f702d6f7061636974793d222e3939223e3c2f73746f703e3c2f6c696e6561724772616469656e743e3c2f646566733e3c746578742066696c7465723d2275726c282341292220666f6e742d66616d696c793d22506c7573204a616b617274612053616e732c44656a6156752053616e732c4e6f746f20436f6c6f7220456d6f6a692c4170706c6520436f6c6f7220456d6f6a692c73616e732d73657269662220666f6e742d7765696768743d22626f6c642220793d2238302220783d2231302220666f6e742d73697a653d223132222066696c6c3d2223666666223e",
  "linkReferences": {},
  "deployedLinkReferences": {}
}